:020000040000FA
:020000000328D3
:040002000034003492
:0A000600831203138501831603170C
:100010008801890183160313850186018701880100
:1000200089010313831285018601870188018901F3
:10003000192874200530013080308800C1308600D6
:10004000742040308800BE30860074202030880044
:10005000BE308600742010308800BE3086007420C8
:1000600008308800DD3086007420810B19287D2837
:1000700003300130803088008030860074204030AA
:100080008800B7308600742020308800B7308600A2
:10009000742010308800B730860074200830880043
:1000A000CF3086007420810B382886280330013039
:1000B0008030880080308600742040308800F7301F
:1000C0008600742020308800F730860074201030BD
:1000D0008800F73086007420083088008030860061
:1000E0007420810B562818289630B0000330B100D8
:1000F000B00B7828B10B782808004930B2000230E4
:10010000B300B20B8128B30B812838284930B500E1
:0E0110000230B600B50B8A28B60B8A28562896
:02400E00F42C90
:02401000FF3F70
:00000001FF
